:020000040800F2
:10000000502600203D0600081504000817040008CB
:100010001B0400081F04000823040008000000005F
:10002000000000000000000000000000270400089D
:100030002904000800000000055C0008512B00089E
:10004000570600085706000857060008570600081C
:10005000570600085706000857060008570600080C
:1000600057060008570600085706000857060008FC
:1000700057060008570600085706000857060008EC
:1000800057060008570600085706000857060008DC
:1000900057060008570600085706000857060008CC
:1000A00057060008570600085706000857060008BC
:1000B00057060008A32F0008570600085706000837
:1000C000570600085706000857060008570600089C
:1000D00057060008A52E0008570600081D2D000829
:1000E000570600085706000857060008570600087C
:1000F000570600085706000857060008570600086C
:10010000570600085706000857060008570600085B
:10011000570600085706000857060008570600084B
:10012000570600085706000857060008570600083B
:10013000570600085706000857060008570600082B
:10014000570600085706000857060008570600081B
:10015000570600085706000857060008570600080B
:1001600057060008570600085706000857060008FB
:1001700057060008570600085706000857060008EB
:10018000570600085706000800F002F800F03CF897
:100190000AA090E8000C82448344AAF10107DA45E2
:1001A00001D100F031F8AFF2090EBAE80F0013F0F8
:1001B000010F18BFFB1A43F001031847F85F000056
:1001C00018600000103A24BF78C878C1FAD85207E6
:1001D00024BF30C830C144BF04680C6070470000C1
:1001E0000023002400250026103A28BF78C1FBD840
:1001F000520728BF30C148BF0B6070471FB505F0DC
:1002000053FE1FBD10B510BD05F01FFE1146FFF7D0
:10021000F5FF00F0C2F805F03DFE03B4FFF7F2FF72
:1002200003BC02F01BFD000008B5002006231A469F
:100230000521009003F046F950E000206A4908705B
:1002400018E06A486849097830F811006849664A38
:10025000127888546748006808B9012000E000203F
:1002600064490860012002F0CFFC5F480078401C20
:100270005D4908705C4800780828E2DB08215C488A
:1002800003F088F95C4908700846007810B900202E
:1002900058490860564803F0B1F9584908700846B3
:1002A0000078D8B100205049087011E05148001D75
:1002B000006808B9012000E000204E49091D0860CF
:1002C000012002F0A1FC48480078401C4649087013
:1002D00045480078494909788842E7DBADE702F0F4
:1002E000A6FE01E003F077F8FCE730E03F488088A5
:1002F00038B93E4A5188108803F079FA012002F09B
:1003000083FC3A488088012821D13848418802205E
:1003100003F06DFA3549C98801EB4102C2EBC11106
:100320004FF6FF7202EAC10002F06EFC2F484188CE
:10033000012003F05CFA2D49C98801EB4102C2EBB0
:10034000C1114FF6FF7202EAC10002F05DFCCDE779
:1003500070B50446002500BF03F0D0FC05F02AFC70
:1003600005460523264A0021AFF2810005F002F878
:100370000F23244A0021AFF2990004F0FBFF04236D
:10038000214A0021AFF25F1004F0F4FF0A2005F0CB
:1003900071FA284605F012FC70BD10B5A82002F0D5
:1003A000E3FB02F005FD4FF4165002F065FC44F645
:1003B000206003F075F903F0E1F902200B49088091
:1003C00000204880888011480078C88003F059FBDD
:1003D0000A230F4A0021AFF2870004F0CBFF03F09D
:1003E00075FC002010BD000001000020940A0020D0
:1003F00002000020880242420A0000200000002083
:100400009002002090060020900A00200B0000209F
:1004100090010020704700BFFEE700BFFEE700BF6D
:10042000FEE700BFFEE77047704700000CB50020F4
:10043000019000907648006840F48030744908606C
:1004400000BF7348006800F4003000900198401C21
:100450000190009818B90198B0F5A04FF1D16C48FF
:10046000006800F4003010B10120009001E000208D
:1004700000900098012846D165484030006840F05F
:1004800080506349403108606248006840F4404051
:10049000604908605E48083000685D4908310860BE
:1004A0000846006840F4004008600846006840F4D0
:1004B000A05008605848091F0860081F006840F0F5
:1004C0008070091F086000BF5148006800F000708C
:1004D0000028F9D040F20570504908604C480830B7
:1004E000006820F003004A490831086008460068A7
:1004F00040F00200086000BF45480830006800F086
:100500000C000828F8D10CBD10B54548006840F42F
:100510007000434908603E48006840F001003C49D3
:10052000086000203A4908310860394800683D49B0
:100530000840374908603C48091D0860081F0068EA
:1005400020F48020091F0860002031490C31086028
:10055000FFF76CFF4FF0006031498039086010BD33
:1005600070B500200022022300240221284D083506
:100570002D6805F00C0020B1042806D0082834D1DD
:1005800007E02A4D2A4E356033E02A4D284E35606B
:100590002FE01F4D2D1D2D68C5F380541C4D2D1DC2
:1005A0002D6805F03F0154B1224DB5FBF1F5184E11
:1005B000361D3668C6F3881605FB06F209E01B4DAA
:1005C000B5FBF1F5124E361D3668C6F3881605FBED
:1005D00006F20F4D2D1D2D68C5F301456D1C6B00F6
:1005E000B2FBF3F5124E356003E0104D104E35604E
:1005F00000BF00BF064D08352D68C5F303150E4E2C
:10060000705D0B4D2D68C540094E356070BD000012
:10061000003802400070004008544007003C02408F
:1006200088ED00E0FFFFF6FE103000240024F40007
:100630000C00002000127A001000002009488047BA
:1006400009480047FEE7FEE7FEE7FEE7FEE7FEE7B4
:10065000FEE7FEE7FEE7FEE704480549054A064BCC
:10066000704700000905000889010008502000209B
:100670005026002050220020502200203249014301
:10068000324A1160704770B5002100230F22C478F0
:100690001CB32E4C246804F4E064C4F5E064C4F395
:1006A0000721C1F10404E3B20A4144789C40E1B25D
:1006B0008478144021430C07210E254C05786155A0
:1006C000047804F01F050124AC4005786D11AD00DD
:1006D00005F1E025C5F8004109E0047804F01F05A4
:1006E0000124AC401B4D0678761145F8264070BDBC
:1006F000194A0A400243154B1B1F1A60704739B153
:10070000124A121D12680243104B1B1D1A6006E0AC
:100710000E4A121D126882430C4B1B1D1A60704753
:10072000042808D14FF0E021096941F004014FF09D
:10073000E022116107E04FF0E021096921F0040196
:100740004FF0E022116170470000FA050CED00E067
:1007500000E400E080E100E080FFFF1F10B50446E8
:100760009848844208D10121084600F086FB002108
:10077000012000F082FB76E09348844208D10121F9
:10078000022000F07AFB0021022000F076FB6AE0F4
:100790008E48844208D10121042000F06EFB002124
:1007A000042000F06AFB5EE08948844208D1012100
:1007B000082000F062FB0021082000F05EFB52E000
:1007C0008448844208D10121102000F056FB00210A
:1007D000102000F052FB46E07F48844208D10121FE
:1007E000202000F04AFB0021202000F046FB3AE0E8
:1007F0007A48844208D10121402000F03EFB0021CC
:10080000402000F03AFB2EE07548844208D10121D7
:10081000802000F032FB0021802000F02EFB22E03F
:100820007048844208D10121801500F026FB002188
:10083000A01500F022FB16E06B48844208D101218C
:10084000401500F01AFB0021601500F016FB0AE0CD
:100850006648844207D10121001500F00EFB0021FB
:10086000201500F00AFB10BDF0B50A460021002358
:10087000002400BF3DE0012505FA01F3156805EAF3
:1008800003049C4234D105684F000326BE40B543A3
:10089000056015794E00B540066835430560157949
:1008A000012D02D01579022D16D185684F0003263F
:1008B000BE40B543856055794E00B54086683543E6
:1008C0008560456801268E40B54345604568967948
:1008D0008E40B6B235434560C5684F000326BE4022
:1008E000B543C560D5794E00B540C6683543C5608F
:1008F000491C1029BFD3F0BD4FF6FF7101600021E4
:10090000017141718171C171704708B54FF4803236
:100910000092009A0A430092009AC261C161009A53
:10092000C261C2690092C269009208BD02460020FD
:1009300013690B400BB1012000E000207047014615
:10094000086980B270470246002053690B400BB122
:10095000012000E0002070470146486980B27047DE
:1009600001837047418370470AB1018300E04183EE
:1009700070474161704742694A4042617047F0B533
:10098000002300244D07ED0E02FA05F3CE1000F10E
:10099000200555F826504E07F70E0F26BE40B543EA
:1009A000CF1000F1200646F82750CE1000F12005A8
:1009B00055F8265045EA0304CE1000F1200545F80D
:1009C0002640F0BD00000240000402400008024042
:1009D000000C0240001002400014024000180240C7
:1009E000001C024000200240002402400028024077
:1009F000F948006840F00100F74908600020F64916
:100A000008310860F4480068F4490840F249086079
:100A1000F348091D0860F348EF4984310860F04845
:100A20001038091D0860EC48006820F48020EA496D
:100A300008600020E8490C310860E7498C31086003
:100A400070470021E44A921C1170114608707047EB
:100A500010B501460022002300204A11012A02D1CC
:100A6000DD4C236808E0022A03D1DB4C7034236894
:100A700002E0D94C7434236801F01F020124944031
:100A80001C400CB1012000E0002010BD38B5002052
:100A900000900024002500BF3120FFF7D9FF054654
:100AA0000098401C00900098B0F5A04F01D0002D98
:100AB000F2D03120FFF7CCFF08B1012400E0002480
:100AC000204638BD01460020C34A106820F0F800D7
:100AD00040EAC10010607047C349086070470021B8
:100AE000BD4A703211701170012802D004280AD159
:100AF00004E00121B84A7032117005E00521B64AC0
:100B00007032117000E000BF00BF7047B749086045
:100B1000704770B5049C41EA82150126C6EB530666
:100B200045EA0645054345EA0465AB4E361D35608A
:100B300070BDAD4908667047820142EA0172A64B5A
:100B400084331A607047A8498866704710B58301DE
:100B500043EA016343EA02739F4C8834236010BD6B
:100B6000A14908677047A049C86470470246002041
:100B7000994B0833186820F0EC6042EA01031843EF
:100B8000954B08331860704702460020924B08339B
:100B9000186820F0784042EA010318438E4B08336E
:100BA00018607047014600208B4A0832106820F018
:100BB000030008431060704787480830006800F061
:100BC0000C00704701460020834A0832106820F06C
:100BD000F000084310607047014600207E4A08324A
:100BE000106820F4E0500843106070470146002070
:100BF000794A0832106820F4604040EAC100106071
:100C00007047F0B5002100220024022500260223AF
:100C1000714F08373F6807F00C0121B1042905D056
:100C2000082937D105E0724F076036E0714F076041
:100C300033E0694F3F1D3F68C7F38056664F3F1D45
:100C40003F6807F03F036EB16A4FB7FBF3F7DFF879
:100C500088C10CF1040CDCF800C0CCF3881C07FB45
:100C60000CF40CE0624FB7FBF3F7DFF86CC10CF14A
:100C7000040CDCF800C0CCF3881C07FB0CF4564FC6
:100C80003F1D3F68C7F301477F1C7D00B4FBF5F7AC
:100C9000076002E0564F076000BF00BF4E4F0837A5
:100CA0003F6807F0F0010909534F7A5C0768D740A5
:100CB0004760494F08373F6807F4E051890A4E4FB3
:100CC0007A5C4768D7408760434F08373F6807F42E
:100CD0006041490B484F7A5C4768D740C760F0BD18
:100CE000002100F44072B2F5407F0AD13A4A08323E
:100CF000116821F4F811414A02401143364A083282
:100D00001160354A70321268C0F30B031A43324B3C
:100D100070331A6070473549443908607047334969
:100D20004039086070473649086070470146002026
:100D3000294A8C32106820F01F004A1E1043264AB0
:100D40008C321060704701460020234A8C321068B4
:100D500020F4F8504A1E40EA02201F4A8C321060EC
:100D60007047014600201C4A8C32106820F4401065
:100D700008431060704701460020174A8C32106803
:100D800020F4400008431060704701460020124ADA
:100D90008C32106820F440300843106070471949C5
:100DA0000860704739B10C4A3032126802430A4B6E
:100DB00030331A6006E0084A303212688243064B2C
:100DC00030331A607047F9B1034A34321268024373
:100DD000014B34331A601CE000380240FFFFF6EA92
:100DE000103000240030002000004742800E4742AF
:100DF0000024F40000127A0024000020FFFCFF0F02
:100E00005C014742E01147428F4A126882438E4B91
:100E10001A60704739B18C4A121D126802438A4B1E
:100E20001B1D1A6006E0884A121D12688243864B19
:100E30001B1D1A60704739B1834A0C321268024395
:100E4000814B0C331A6006E07F4A0C3212688243F1
:100E50007D4B0C331A60704739B17B4A10321268EF
:100E60000243794B10331A6006E0774A1032126859
:100E70008243754B10331A60704739B1724A243A75
:100E800012680243704B243B1A6006E06E4A243A13
:100E9000126882436C4B243B1A60704739B16A4A2E
:100EA000203A12680243684B203B1A6006E0664A0B
:100EB000203A12688243644B203B1A60704739B174
:100EC000614A1C3A126802435F4B1C3B1A6006E001
:100ED0005D4A1C3A126882435B4B1C3B1A607047A8
:100EE00039B1594A143A12680243574B143B1A60FD
:100EF00006E0554A143A12688243534B143B1A6079
:100F0000704739B1504A103A126802434E4B103BB9
:100F10001A6006E04C4A103A126882434A4B103B72
:100F20001A60704739B1484A1C3212680243464B76
:100F30001C331A6006E0444A1C3212688243424B5A
:100F40001C331A60704739B13F4A2032126802439D
:100F50003D4B20331A6006E03B4A20321268824340
:100F6000394B20331A60704739B1374A243212683E
:100F70000243354B24331A6006E0334A24321268A8
:100F80008243314B24331A60704739B12E4A2C32D8
:100F9000126802432C4B2C331A6006E02A4A2C328A
:100FA00012688243284B2C331A60704739B1264AA5
:100FB000303212680243244B30331A6006E0224A72
:100FC000303212688243204B30331A607047012858
:100FD00008D11D493C31096841F008011A4A3C32E8
:100FE000116007E018493C31096821F00801164AF0
:100FF0003C321160704739B1134A273A12780243E4
:10100000114B273B1A7006E00F4A273A12788243A9
:101010000D4B273B1A7070470B484030006840F07A
:101020008070094940310860704701460020064A37
:10103000283A12680A400AB1012000E000207047F7
:1010400001492639087070473438024010B504460B
:10105000FA48844208D101211020FFF752FF0021F5
:101060001020FFF74EFF57E0F548844209D10121D7
:101070004804FFF735FF00214FF40030FFF730FF41
:101080004AE0F048844209D101218804FFF728FF93
:1010900000214FF48020FFF723FF3DE0EA4884421F
:1010A00009D10121C804FFF71BFF00214FF40020E4
:1010B000FFF716FF30E0E548844209D10121080519
:1010C000FFF70EFF00214FF48010FFF709FF23E028
:1010D000DF48844208D101212020FFF712FF0021C0
:1010E0002020FFF70EFF17E0DA48844209D10121E2
:1010F0008807FFF7F5FE00214FF08040FFF7F0FE74
:101100000AE0D548844207D101214005FFF7E8FEF7
:1011100000216005FFF7E4FE10BD2DE9FF470546FD
:101120000E460024A14600BFA046B08900B100BF12
:101130002C8A24F44054F08804432C82AC8941F278
:101140000C608443B08831890843718908430443A3
:10115000AC81AC8A24F44074B0890443AC82684604
:10116000FFF74FFDB548854202D0B948854202D10C
:10117000DDF80C9001E0DDF80890A88900F400404B
:1011800040B109EBC90000EB091031684900B0FB20
:10119000F1F707E009EBC90000EB0910316889009D
:1011A000B0FBF1F76420B7FBF0F0040120096421E3
:1011B00001FB1078A88900F4004040B1322000EB18
:1011C000C800B0FBF1F000F00700044308E0322053
:1011D00000EB08106421B0FBF1F000F00F000443B5
:1011E0002C81BDE8FF874FF41651016000218180FA
:1011F000C18001810C21418100218181704710B59E
:1012000002460020108A20F470600B884C8823432B
:101210008C882343CC8823431843108210BD0021BF
:10122000018041808180C180704721B1828942F470
:101230000052828104E082894DF6FF731A40828158
:101240007047028B02F47F420283028B0A430283BF
:10125000704721B1828942F40042828103E0828991
:10126000C2F30E028281704721B1828A42F4006289
:10127000828204E0828A4FF2FF731A4082827047B2
:10128000C1F308028280704701468888C0F30800D5
:101290007047028A4FF6F0731A400282028A0A43AC
:1012A0000282704721B1828942F00202828104E009
:1012B00082894FF6FD731A408281704782894FF20E
:1012C000FF731A40828182890A4382817047028AB1
:1012D0004FF6DF731A400282028A0A430282704785
:1012E00021B1028A42F48042028204E0028A4BF673
:1012F000FF731A4002827047818941F001018181A8
:10130000704721B1828A42F00802828204E0828A18
:101310004FF6F7731A4082827047028BD2B2028373
:10132000028B42EA01220283704721B1828A42F095
:101330002002828204E0828A4FF6DF731A408282A2
:10134000704721B1828A42F01002828204E0828AD0
:101350004FF6EF731A4082827047828A4FF6FB7312
:101360001A408282828A0A438282704721B1828A2D
:1013700042F00202828204E0828A4FF6FD731A4034
:10138000828270471AB1838A0B43838202E0838A88
:101390008B4383827047F0B5034600240026002566
:1013A000002040F66A17B94200D100BF1846C1F3C9
:1013B000421401F01F06012707FA06F5012C01D19E
:1013C0000C3004E0022C01D1103000E014301AB1CE
:1013D00007682F43076002E00768AF430760F0BD6E
:1013E00002460020B1F5007F00D100BF13880B40FA
:1013F0000BB1012000E00020704701F40072B2F54B
:10140000007F00D100BFCA430280704770B502461A
:10141000002400230025002040F66A16B14200D1C6
:1014200000BFC1F3421501F01F03012606FA03F3C2
:10143000012D13D19689334017E0000000100140C0
:101440000044004000480040004C00400050004074
:101450000014014000780040007C0040022D02D1C1
:10146000168A334001E0968A33400C12012606FAB0
:1014700004F41688344013B10CB1012000E00020C0
:1014800070BD10B50022002340F66A14A14200D1BD
:1014900000BF0A1201249440A3B2DC43048010BDB3
:1014A00010B50446FE48844208D101210846FFF7E2
:1014B00028FD00210120FFF724FD9DE0B4F1804FBD
:1014C00008D101210846FFF70BFD00210120FFF79D
:1014D00007FD91E0F348844208D101210220FFF783
:1014E000FFFC00210220FFF7FBFC85E0EE48844270
:1014F00008D101210420FFF7F3FC00210420FFF7AD
:10150000EFFC79E0E948844208D101210820FFF787
:10151000E7FC00210820FFF7E3FC6DE0E44884428B
:1015200008D101211020FFF7DBFC00211020FFF77C
:10153000D7FC61E0DF48844208D101212020FFF779
:10154000CFFC00212020FFF7CBFC55E0DA48844295
:1015500008D101210220FFF7D4FC00210220FFF76F
:10156000D0FC49E0D548844209D101210804FFF7A5
:10157000C8FC00214FF48030FFF7C3FC3CE0D048AA
:10158000844209D101214804FFF7BBFC00214FF43C
:101590000030FFF7B6FC2FE0CA48844209D1012190
:1015A0008804FFF7AEFC00214FF48020FFF7A9FC70
:1015B00022E0C548844208D101214020FFF790FC79
:1015C00000214020FFF78CFC16E0C048844208D17F
:1015D00001218020FFF784FC00218020FFF780FCA0
:1015E0000AE0BB48844207D101218015FFF778FC4F
:1015F0000021A015FFF774FC10BD00220288A84B43
:1016000098420ED0AC4B98420BD0B0F1804F08D02E
:10161000A44B984205D0A44B984202D0A34B9842C9
:1016200004D14FF68F731A404B881A43A04B98424F
:1016300007D0A04B984204D04FF6FF431A400B89C5
:101640001A4302804B68C3620B880385944B98420F
:1016500002D0994B984201D18B7A03860123838271
:1016600070474FF0FF3141600021018001814180CE
:10167000817270470185828270470A460021018885
:101680004FF68F73194011430180704741627047D4
:10169000C16270470146486A70470146088D70472D
:1016A00021B1028842F00202028004E002884FF673
:1016B000FD731A400280704721B1028842F0040293
:1016C000028004E002884FF6FB731A4002807047E4
:1016D00021B1028842F08002028004E002884FF6C5
:1016E0007F731A400280704702884FF6F7731A40E2
:1016F000028002880A430280704702884FF6FF4347
:101700001A40028002880A430280704721B1028891
:1017100042F00102028004E002884FF6FE731A4094
:101720000280704770B5002400220023058C4FF61C
:10173000FE7635400584028C8388048B4FF68F75C6
:101740002C40B51E2C400D882C43751E2A408D89D7
:101750002A434D882A43524DA84202D0564DA842F2
:1017600013D14FF6F7752A40CD892A434FF6FB7502
:101770002A408D882A434FF6FF652B404FF6FF55D0
:101780002B400D8A2B434D8A2B43838004838D6825
:101790004563028470BD70B5002400220023058CCF
:1017A0004FF6EF7635400584028C8388048B48F62B
:1017B000FF752C404FF6FF452C400D884FF6FF7605
:1017C00006EA05252C434FF6DF752A408D8906EA87
:1017D00005152A434D8806EA05152A43304DA842CF
:1017E00002D0354DA8421DD14FF67F752A40CD89D4
:1017F0004FF6FF7606EA05152A434FF6BF752A40D5
:101800008D8806EA05152A434FF6FF352B404FF227
:10181000FF752B400D8A06EA85052B434D8A06EAA3
:1018200085052B43838004838D688563028470BDA6
:1018300070B5002400220023058C4FF6FF6635406A
:101840000584028C8388848B4FF68F752C404FF66D
:10185000FC752C400D882C434FF6FF552A408D898E
:101860004FF6FF7606EA05252A434D8806EA052548
:101870002A430B4DA84202D00F4DA84238D14FF257
:10188000FF752A40CD894FF6FF7606EA05252A43E3
:101890004FF6FF352A408D8806EA05252A4319E0D0
:1018A000000001400004004000080040000C00401F
:1018B00000100040001400400004014000400140BE
:1018C000004401400048014000180040001C004056
:1018D000002000404EF6FF752B404DF6FF752B4063
:1018E0000D8A06EA05152B434D8A06EA05152B439A
:1018F000838084838D68C563028470BD70B50022C7
:1019000000230024058C4EF6FF7635400584038CB9
:101910008488828B48F6FF752A404FF6FF452A409F
:101920000D884FF6FF7606EA05252A434DF6FF752A
:101930002B408D8906EA05352B434D8806EA05358F
:101940002B43FE4DA84202D0FD4DA84208D14BF6D4
:10195000FF752C400D8A4FF6FF7606EA85152C435D
:10196000848082838D680564038470BD00210180BA
:101970004180818081608181C18101824182704783
:1019800070B50346002000241846183001258D400C
:10199000ACB21D8CA5431D8409B108290AD100EB06
:1019A000610005684FF68F76354005600568154380
:1019B00005600FE00D1FC5F34E052844056848F685
:1019C000FF763540056005684FF6FF7606EA022689
:1019D0003543056070BD4163704781637047C163E3
:1019E0007047016470470A460021018B4FF68F73E0
:1019F00019401143018370470A460021018B48F6C4
:101A0000FF7319404FF6FF7303EA02231943018362
:101A100070470A460021818B4FF68F73194011439E
:101A2000818370470A460021818B48F6FF73194075
:101A30004FF6FF7303EA02231943818370470A4676
:101A40000021018B4FF6F773194011430183704752
:101A50000A460021018B4FF2FF7319404FF6FF73C6
:101A600003EA02231943018370470A460021818B50
:101A70004FF6F77319401143818370470A460021DE
:101A8000818B4FF2FF7319404FF6FF7303EA022375
:101A90001943818370470A460021018B4FF6FB737F
:101AA00019401143018370470A460021018B4FF60C
:101AB000FF3319404FF6FF7303EA022319430183F2
:101AC00070470A460021818B4FF6FB731940114382
:101AD000818370470A460021818B4FF6FF331940FE
:101AE0004FF6FF7303EA02231943818370470A46C6
:101AF0000021018B4FF67F7319401143018370471A
:101B00000A460021018BC1F30E014FF6FF7303EA71
:101B100002231943018370470A460021818B4FF647
:101B20007F7319401143818370470A460021818BDE
:101B3000C1F30E014FF6FF7303EA022319438183B9
:101B400070470A460021018C4FF6FD73194011437E
:101B5000018470470A460021018C4FF6F773194043
:101B60001143018470470A460021018C4FF6DF7350
:101B700019404FF6FF7303EA0213194301847047BB
:101B80000A460021018C4FF67F7319404FF6FF7310
:101B900003EA02131943018470470A460021018CAD
:101BA0004FF6FF5319404FF6FF7303EA0223194320
:101BB000018470470A460021018C4FF2FF731940DF
:101BC0004FF6FF7303EA02231943018470470A4664
:101BD0000021018C4DF6FF7319404FF6FF7303EAA5
:101BE000023319430184704730B5002301248C402F
:101BF000A3B2048C9C430484048C02FA01F5ADB2B8
:101C00002C43048430BD30B5002304248C40A3B29F
:101C1000048C9C430484048C02FA01F5ADB22C437D
:101C2000048430BD828B4FF2FF331A408283828B53
:101C30004FF6FF7303EA01231A4382837047F0B51E
:101C40000C461546002100220026078C4EF6FF7C2C
:101C500007EA0C070784818B028C4FF6FF7707EAAF
:101C6000043640F6FF4739404FF6FF7707EA05276D
:101C700039434FF6FF7707EA0337394345F6FF77D5
:101C80003A4046F480573A4381830284F0BD828B08
:101C90004FF6F3731A408283828B0A438283704724
:101CA000F0B50C461546002100220026078C4FF6A1
:101CB000FF6C07EA0C070784818B028C4FF6FF77D5
:101CC00007EA04264FF60C7739404FF6FF7707EA0C
:101CD00003172F4339434FF2FF573A4046F48077BA
:101CE0003A4381830284F0BD028B4FF2FF331A40E6
:101CF0000283028B4FF6FF7303EA01231A43028328
:101D00007047F0B50C461546002100220026078CCE
:101D10004FF6EF7C07EA0C070784018B028C4FF625
:101D2000FF7707EA041640F6FF4739404FF6FF7782
:101D300007EA033739434FF6FF7703E0000001401D
:101D40000004014007EA052739434FF65F773A4020
:101D500046F010073A4301830284F0BD028B4FF630
:101D6000F3731A400283028B0A4302837047F0B573
:101D70000C46154600210022068C4FF6FE773E40A9
:101D80000684018B028C4FF60C7631407E1C06EAED
:101D900003162E4331434FF6F576324044F00106E8
:101DA000324301830284F0BD70B505460C4620889D
:101DB00050B92389A28861882846FFF7D8FFE188B7
:101DC0002846FFF7CBFF25E0208804280AD1238985
:101DD000A28861882846FFF794FFE1882846FFF72C
:101DE00083FF17E0208808280AD12389A288618808
:101DF0002846FFF755FFE1882846FFF748FF09E02E
:101E00002389A28861882846FFF719FFE1882846C0
:101E1000FFF708FF70BD0021018041800121818012
:101E20000021C180018170472DE9F04105460C4633
:101E300000260127608808B9022600E00026A08855
:101E4000012801D1022700E001272088A0B92389B9
:101E5000A28861882846FFF78AFFE1882846FFF7B5
:101E60007DFF23893A4631462846FFF74AFFE1883D
:101E70002846FFF739FF13E02389A28861882846A6
:101E8000FFF73FFFE1882846FFF72EFF23893A46F8
:101E900031462846FFF76BFFE1882846FFF75EFFD3
:101EA000BDE8F0810146486B70470146886B70477A
:101EB0000146C86B70470146086C70470A884B881A
:101EC0001A438B881A43CB881A430B891A434B89D0
:101ED0001A438B891A43A0F84420704700210180DF
:101EE00041808180C180018141818181704731B110
:101EF000B0F8442042F40042A0F8442005E0B0F8D5
:101F00004420C2F30E02A0F84420704721B1828819
:101F100042F00402828004E082884FF6FB731A408C
:101F20008280704721B1828842F00102828004E001
:101F300082884FF6FE731A40828070471AB18389F7
:101F40000B43838102E083898B43838170478182C5
:101F5000704702460020138A0B400BB1012000E0BD
:101F600000207047CA430282704730B50246002005
:101F700000230024158A05EA0103958905EA010476
:101F800013B10CB1012000E0002030BDCA43028231
:101F9000704741EA0203A0F8483070471AB18389BC
:101FA0000B43838102E083898B438381704721B196
:101FB000828842F00802828004E082884FF6F7733C
:101FC0001A408280704701894FF6F87211400181F2
:101FD00070470A46002101894FF68F73194011435B
:101FE0000181704730B504460D4629462046FFF76B
:101FF000F0FF208940F00700208130BD2DE9F0413D
:1020000004460D4616461F46602D06D13B4601226A
:1020100031462046FFF775FE05E03B46012231467A
:102020002046FFF7A4FE29462046FFF7D2FF20896D
:1020300040F007002081BDE8F08130B50C4600215A
:102040000189C9B24FF6FF7505EA032515432543FB
:102050002943018130BD2DE9F04105460E46174662
:102060009846002443463A4631462846FFF7E5FFA6
:102070002C894FF6F870044044F007044FF68F7037
:10208000044044F070042C81BDE8F081F0B50446B2
:102090000D4616461F463B46324629462046FFF768
:1020A000CCFF208940F480402081F0BD82884FF62B
:1020B0008F731A40828082880A4382807047028927
:1020C0004FF6F8731A40028102890A430281704771
:1020D00002894FF67F731A40028102890A43028106
:1020E0007047F0B50C4615461E460021002200231D
:1020F0000189028B038C4FF6F877394021434FF664
:10210000FC473A4040F201173A434FF6DD773B4037
:102110004FF6FF7707EA06172F433B4301810283FF
:102120000384F0BD21B1828842F08002828004E005
:1021300082884FF67F731A4082807047A0F8501053
:102140007047000010B50446FE48844209D10121C1
:102150004806FEF7C5FE00214FF00070FEF7C0FEF6
:1021600008E001218806FEF7BBFE00214FF08060E9
:10217000FEF7B6FE10BD30B50246002000231468FD
:1021800024F002041460146844F00104146000E0B8
:102190005B1C546804F001041CB94FF6FF74A342A1
:1021A000F6D1546804F001040CB900206CE08C797D
:1021B000012C04D1146844F08004146003E0146816
:1021C00024F080041460CC79012C04D1146844F00C
:1021D0004004146003E0146824F0400414600C7A96
:1021E000012C04D1146844F02004146003E0146846
:1021F00024F0200414604C7A012C04D1146844F0BB
:102200001004146003E0146824F0100414608C7A45
:10221000012C04D1146844F00804146003E014682D
:1022200024F008041460CC7A012C04D1146844F022
:102230000404146003E0146824F0040414608C782F
:10224000A407CD7844EA05640D7944EA05444D7944
:1022500044EA05540D886D1E2C43D461146824F0A3
:1022600001041460002300E05B1C546804F00104C6
:102270001CB14FF6FF74A342F6D1546804F0010478
:102280000CB1002000E0012030BD10B50021837AA0
:10229000012202FA03F1AC4A126842F00102AA4B91
:1022A0001A60A94A1C3212688A43A74B1C331A6071
:1022B000027BCAB9A44A0C3212688A43A24B0C337F
:1022C0001A604288C38842EA03439F4A4032847AB4
:1022D00042F834300288838842EA03439A4A403203
:1022E000847A02EBC4025360027B012A19D1964A18
:1022F0000C3212680A43944B0C331A6042880388EC
:1023000042EA0343904A4032847A42F83430C28829
:10231000838842EA03438C4A4032847A02EBC40247
:102320005360C27A3AB9884A121D12688A43864BB2
:102330001B1D1A6006E0844A121D12680A43824B74
:102340001B1D1A60028932B97F4A143212688A430F
:102350007D4B14331A600289012A06D17A4A14325D
:1023600012680A43784B14331A60427B012A06D163
:10237000754A1C3212680A43734B1C331A60724A46
:10238000126822F00102704B1A6010BD00218171A9
:10239000C171017241728172C1728170C170032179
:1023A000017102214171012101807047664909686C
:1023B00041F00101644A11601146096843F60E724A
:1023C0009143614A11601146096841EA0021116098
:1023D0001146096821F001011160704721B10268BE
:1023E00042F48032026003E0026822F4803202602C
:1023F0007047E1B1026842F0800202604FF4C2729D
:10240000125842F480734FF4C27213504FF4CA72E0
:10241000125842F480734FF4CA7213504FF4D272C0
:10242000125842F480734FF4D27213501BE00268CA
:1024300022F0800202604FF4C272125822F48073BC
:102440004FF4C27213504FF4CA72125822F48073C0
:102450004FF4CA7213504FF4D272125822F48073A0
:102460004FF4D2721350704710B5024600209368A3
:1024700003F08063B3F1806F00D110E0936803F044
:102480000063B3F1006F01D1012008E0936803F00D
:102490008053B3F1805F01D1022000E004200428C2
:1024A00079D002F5C07303EB00131B6803F001043D
:1024B00002F5C07303EB00131C600B7A7BB94B7AF7
:1024C0000C8843EA445302F5C07404EB00142468FA
:1024D000234302F5C07404EB0014236010E00B7A70
:1024E0004C6843EAC4034C7A234302F5C07404EBFE
:1024F00000142468234302F5C07404EB0014236025
:102500008B7A03F00F038B7202F5C07303EB001399
:102510005B6823F00F0402F5C07303EB00135C60EB
:1025200002F5C07303EB00135B688C7A234302F55A
:10253000C07404EB001463608B7B1C064B7B44EA85
:10254000034403E000640040006600400B7B44EA63
:102550000323CC7A234302F5C07404EB0014A36078
:102560008B7C1C064B7C44EA03440B7C44EA03232B
:10257000CC7B234302F5C07404EB0014E36002F546
:10258000C07303EB00131B6843F0010402F5C07332
:1025900003EB00131C6010BD10B50246002321B1EF
:1025A000012907D002290FD109E09068F94C00EA0F
:1025B00004030BE09068F84C00EA040306E090681E
:1025C000F64C00EA040301E0002300BF00BFF44C16
:1025D000181BA34216D007DC83B16FF0806018444B
:1025E00070B1022818D111E0B0F5007F10D0ED4C89
:1025F000204448B1B0F5003F0ED10BE002230DE0BE
:1026000000230BE0002309E0002307E0012305E09D
:10261000012303E0012301E0002300BF00BFD8B283
:1026200010BD21B1012907D002290FD109E082682C
:1026300042F0800282600AE0826842F400428260D6
:1026400005E0826842F40002826000E000BF00BF43
:10265000704710B500F5D87303EB01131B6803F046
:1026600004031372137A53B900F5D87303EB011303
:102670001B6840F2FF7404EA5353136009E000F54D
:10268000D87303EB01131B686FF0604404EAD303B3
:10269000536000F5D87303EB01131B6803F00203CA
:1026A000537200F5D87303EB01135B6803F00F035B
:1026B000937200F5D87303EB01135B681B0AD374A4
:1026C00000F5D87303EB01139B68D37200F5D87340
:1026D00003EB01139B681C0A147300F5D87303EB1A
:1026E00001139B681C0C547300F5D87303EB0113A2
:1026F0009B681B0E937300F5D87303EB0113DB6823
:10270000D37300F5D87303EB0113DB681C0A147450
:1027100000F5D87303EB0113DB681C0C547400F54F
:10272000D87303EB0113DB681B0E937421B9C368E4
:1027300043F02003C36003E0036943F02003036117
:1027400010BD21B9C26842F02002C26003E00269F4
:1027500042F02002026170470246002019B9D36896
:1027600003F0030006E0012903D1136903F003001D
:1027700000E00020704710B502460B4600204FF6DF
:10278000FF71BBB9146824F0020444F00104146022
:1027900000E0491E546804F00304012C01D0002914
:1027A000F7D1546804F00304012C01D0002032E07A
:1027B000012030E0012B13D1146824F003041460CD
:1027C00000E0491E546804F003040CB10029F8D15C
:1027D000546804F003040CB100201CE001201AE04E
:1027E000022B17D1146824F0010444F00204146091
:1027F00000E0491E546804F00304022C01D00029B3
:10280000F7D1546804F00304022C01D0002002E048
:10281000012000E0002010BD014600200A6822F0DF
:10282000010242F002020A604A6802F00302022A30
:1028300000D10120704701464FF6FF7200200B685F
:1028400023F002030B6000E0521E4B6803F002030A
:10285000022B01D1002AF7D14B6803F00203022BAF
:1028600000D001207047014600208A6902F0700004
:102870007047014600208A69100E7047014600200B
:102880008A69C2F3074070471AB143690B43436139
:1028900002E043698B434361704710B50246002054
:1028A00001F4700343B19369C1F3130423400BB1E6
:1028B00001202DE000202BE001F0807343B153682C
:1028C000C1F3130423400BB1012021E000201FE0DD
:1028D00001F0006343B19368C1F3130423400BB1CB
:1028E000012015E0002013E001F0007343B1D3682C
:1028F000C1F3130423400BB1012009E0002007E0DD
:102900001369C1F3130423400BB1012000E0002040
:1029100010BD0022244B994202D10023836111E0B3
:10292000C1F3130201F000730BB1C2600AE001F0C1
:1029300080630BB1026105E001F000630BB18260BE
:1029400000E0426070470246002002EA01030BB13A
:10295000012000E00020704770B504460D460026B7
:1029600060692840002872D0B5F5807F69D01DDCF1
:10297000082D42D006DC012D2DD0022D31D0042DA2
:102980007FD134E0102D3ED0202D42D0402D78D183
:1029900045E00000030000040003000800000310ED
:1029A000000100080001FFF77000F030B5F5004F9E
:1029B00061D009DCB5F5007F4AD0B5F5806F4DD008
:1029C000B5F5006F5DD150E0B5F5803F2DD0B5F580
:1029D000003F56D12FE0A0685549FFF7B4FF0646E7
:1029E00051E0E0680321FFF7AEFF06464BE0E068E8
:1029F0000821FFF7A8FF064645E0E0681021FFF731
:102A0000A2FF06463FE020690321FFF79CFF064630
:102A100039E020690821FFF796FF064633E0206978
:102A20001021FFF790FF06462DE060680821FFF7B0
:102A30008AFF064627E060681021FFF784FF0646FC
:102A400021E0A0690121FFF77EFF06461BE01BE0A5
:102A5000A0690221FFF777FF064614E0A069042170
:102A6000FFF771FF06460EE00BE0A0697021FFF74B
:102A70006AFF064607E060680421FFF764FF064628
:102A800001E0002600BF00E00026304670BDB1F531
:102A9000007F3AD00FDC202928D006DC01291CD089
:102AA00004291DD0082940D11DE0402921D0B1F5CD
:102AB000807F3AD126E0B1F5004F31D006DCB1F588
:102AC000806F25D0B1F5006F2FD124E0B1F5803FA4
:102AD00012D0B1F5003F28D111E0154A826025E0FF
:102AE0000822C26022E01022C2601FE008220261B8
:102AF0001CE01022026119E00822426016E0102258
:102B0000426013E00422426010E0042242600DE0C3
:102B1000042242600AE0002282610422426005E051
:102B2000002282610422426000E000BF00BF7047C3
:102B30000101010010B501F00DF810BD10B501F054
:102B40004EF810BD10B50446204602F05BFF10BDE4
:102B500010B53E480078012805D100F0A8FF01F02B
:102B6000ECF800F0BFFF10BD70B504466FF0040034
:102B7000FDF7D6FDE11704EB5171C1F3C701344AEB
:102B80001170E11704EB5171CD104FF47A70454389
:102B90000120304908804FF0E020006940F0020039
:102BA0004FF0E021086108464561006940F00100EE
:102BB000086170BD2DE9F047074600264FF0E02080
:102BC000D0F814902248007807FB00F8FFF7B2FF16
:102BD0004FF0E020856911E04FF0E0208469AC42BD
:102BE0000CD0AC4202D2281B064403E0A9EB04003F
:102BF000284406442546464500D300E0ECE700BFE4
:102C0000FFF79CFFBDE8F08770B504460F480078D9
:102C1000A0B11148007888B90E480088844206DBCC
:102C20000C48008894FBF0F52846FFF78BFF094815
:102C3000008894FBF0F100FB114084B24FF47A71EC
:102C400004FB01F0FFF7B6FF70BD0000720000202A
:102C500034000020360000206500002000BF7047CF
:102C600000BF4F4A128802F04002002AF9D0C2B2D7
:102C70004B4B1B1D1A80704710B588B004460121CC
:102C80000220FEF78FF801218804FEF7D4F807220E
:102C90000A214448FDF773FE07220B214148FDF746
:102CA0006EFE4FF44060069002208DF81C008DF8F7
:102CB0001D0000208DF81E0001208DF81F0006A9C0
:102CC0003848FDF7D1FD02940020ADF80C00ADF8B6
:102CD0000E00ADF81000ADF814000C20ADF8120095
:102CE00002A92F48FEF719FA01212D48FEF79DFA97
:102CF000012240F225512A48FEF74DFB27208DF88E
:102D0000040003208DF805008DF8060001208DF8E1
:102D1000070001A8FDF7B7FC08B010BD10B500F022
:102D2000C6FE40F225511E48FEF770FB10B31C484A
:102D3000FEF7AAFAC4B21C48008800F40040C8B9E3
:102D40001948008800F4804060B10A2C03D00020AC
:102D50001549088020E01448008840F400401249DA
:102D6000088019E00D2C06D10F48008840F48040FF
:102D70000D49088010E00C480088C0F30D000B4995
:102D80000C5409480088401C074908800846008800
:102D9000C72801DD0020088000F0A4FE10BD00005F
:102DA00000480040000402403C0000209412002033
:102DB0001CB501211020FDF7F5FF0C20009001202B
:102DC0008DF8040000208DF8060003208DF8050022
:102DD00001208DF8070069460348FDF745FD0C21E9
:102DE0000148FDF7BDFD1CBD0010024010B588B0C4
:102DF000044601210846FDF7D5FF01211020FEF70A
:102E00002BF807220921F748FDF7B9FD07220A210F
:102E1000F448FDF7B4FD4FF4C060069002208DF831
:102E20001C008DF81D0000208DF81E0001208DF87B
:102E30001F0006A9EB48FDF717FD02940020ADF82E
:102E40000C00ADF80E00ADF81000ADF814000C2029
:102E5000ADF8120002A9E448FEF75FF90121E2484B
:102E6000FEF7E3F925208DF8040003208DF8050016
:102E70008DF8060001208DF8070001A8FDF703FC7E
:102E8000012240F22551D848FEF785FA4021D64864
:102E9000FEF7B3FA012240F22661D348FEF77BFA2F
:102EA00008B010BD10B500F002FE40F22551CE482A
:102EB000FEF7ACFAE0B1CC488088C0F30804CB48F8
:102EC000B0F80202A0B9C949B1F80002411CC74BD1
:102ED000A3F8001219460C540820A1F80402084671
:102EE000B0F80C0220F4806000F58060A1F80C02BC
:102EF00040F22661BC48FEF789FA18B340F2266119
:102F0000B948FEF7BEFAB948B0F80C02C0F3402049
:102F1000C0B1B648B0F80802B449B1F80A12884204
:102F20000CDAB249B1F80802411CB04AA2F8081202
:102F300002F58071095CAC4A918003E0AC480068FE
:102F400002F002F900F0CEFD10BD7FB505460C463B
:102F500001210220FDF76FFF0295ADF8044000202B
:102F6000ADF80600ADF80C0001A9A248FEF745FB3C
:102F70001D208DF8000001208DF8010003208DF840
:102F8000020001208DF803006846FDF77CFB01225A
:102F900011469848FEF7D2FF01219648FEF7B6FB8E
:102FA0007FBD10B500F083FD01219248FEF7DDFFE3
:102FB000012821D101218F48FEF7E8FF8B48B0F8A6
:102FC0000C02C0F38020B8B18848B0F8040238B1D0
:102FD0008648B0F80402401E8449A1F804020BE0C0
:102FE0008248B0F80C0220F480608049A1F80C02FD
:102FF0008148006802F0A8F800F074FD10BD70B5BB
:1030000002460C46FF25FF2309E012F8010B80EA77
:1030100005017A48405C80EA03057948435C20005A
:10302000A4F10106B4B2F0D143EA052070BD10B599
:10303000002001F054FF70490860002001F04FFFAC
:103040006B49086000206949A1F80202A1F800025A
:103050000820A1F804020020A1F808020846B0F8F0
:103060000C0220F40070A1F80C020846B0F80C0223
:1030700020F48060A1F80C020020624908704FF42F
:103080001650FFF7B3FE42F2CF010920FFF75DFFB4
:1030900010BD2DE9F0410020544981F80C0208468A
:1030A0004078032804D0062841D0102873D173E05B
:1030B0004E48C0784D49897840EA01274B4840790D
:1030C0004A49097940EA01250DB9012502E0792D27
:1030D00000DD79254C4800EB470000EB45014B48EB
:1030E000814204D90320414981F80C021EE04FF6C9
:1030F000FF7000EA450500240FE03846791C8FB2C6
:10310000414931F8100006B2C6F30722E01C4049DD
:103110000A54201D0E54A01C84B2AC42EDDB601D8D
:103120003249A1F80A02084680F80251AAE02F4865
:10313000C0782E49897840EA01272C4840792B49EC
:10314000097940EA012006B2284890F80C0208BB31
:10315000CE2F0CD12F480088012803D12A4921F80D
:10316000176007E00220214981F80C0202E026499D
:1031700021F81760310A1D4880F8041180F80561B4
:10318000817880F80211C17880F80311082017496E
:10319000A1F80A0276E070E01448C07813498978F3
:1031A00040EA0127114840791049097940EA012590
:1031B0000E488679792D01DD7925F226124800EB3B
:1031C000470000EB45011448814203D8B5EB660F78
:1031D00000D126B90320054981F80C024CE00024F7
:1031E00036E0000000000240001001405C130020A7
:1031F000440000200004004040000020B25E0008AF
:10320000B25F000848000020940A002094120020B9
:103210005C140020220000207C0E00204FF6FF707E
:1032200000EA440808F108009E49095C401E9D4AD6
:10323000105C41EA002006B2104690F80C0220B95A
:103240003919994A22F8116000E003E0601C84B249
:10325000AC42E3DB00BF9348817880F80211C1786B
:1032600080F80311017980F80411417980F8051183
:1032700008208C49A1F80A0204E00220894981F85B
:103280000C0200BF00BF87480078864981F8000122
:103290000846417880F8011190F80C0278B1814815
:1032A00090F8010140F080017E4880F8011190F80B
:1032B0000C1280F8021105207A49A1F80A020024B4
:1032C00004E0002077490855601C84B2FF2CF8D92F
:1032D0007448B0F80A02801E81B27448FFF78FFE6E
:1032E00005462A126F48B0F80A02801E6F490A5438
:1032F0006C48B0F80A02401E0D54BDE8F08118B5C4
:1033000068484078032803D066484078062804D1EE
:1033100006206449A1F80A020EE0624840781028AD
:1033200006D160488079C01D5E49A1F80A0203E019
:1033300000205C49A1F80A025A48B0F80A12FFF7C7
:103340005EFE00905748B0F80A02401C5549085CE0
:10335000B1F80A12534A515C40EA01241046007841
:1033600053490988884202D01046007880BBBDF8D6
:103370000000A0422DD14B48007860B1002049499F
:10338000A1F808020846B0F80C0220F4007000F51D
:103390000070A1F80C02FFF77CFE4248B0F80C0266
:1033A000C0F3402090B13F48B0F808023D49B1F861
:1033B0000A1288420ADA3B49B1F80802411C394A2C
:1033C000A2F808123949095C3A4A9180012018BDD7
:1033D000FFE70020FBE708B53248B0F8020220B151
:1033E00001280DD002283DD124E06A460021324850
:1033F000006801F0FAFD01202A49A1F8020232E03A
:10340000FFF77DFF20B102202649A1F8020210E05B
:1034100000202449A1F80202A1F80002A1F8060246
:10342000A1F80A020846B0F80C0220F40070A1F8D6
:103430000C0218E06A4600212048006801F0D5FD22
:1034400000201849A1F80202A1F80002A1F8060222
:10345000A1F80A020846B0F80C0220F40070A1F8A6
:103460000C0200E000BF00BF08BD70B505460E4667
:1034700000240CE000BF40211148FDF7B1FF0028F7
:10348000F9D0295D0E48FDF7FBFE601CC4B2B442C2
:10349000F0DB00BF40210A48FDF7A2FF0028F9D069
:1034A00070BD00005C130020940A00205C14002012
:1034B00020000020001001404000002044000020B7
:1034C000004400402DE9F0418AB004460D461646FE
:1034D0001F46DDF8408001210846FDF763FC01210D
:1034E0004806FDF7A8FC4FF4C050089002208DF864
:1034F000240000208DF8260003208DF825000120EF
:103500008DF8270008A94C48FDF7AEF909220B21D8
:103510004948FDF734FA09220C214748FDF72FFAF4
:1035200000208DF81A008DF81B008DF81C0001207A
:103530008DF81D0000208DF81E008DF81F008DF8FD
:1035400016808DF817408DF818608DF81950ADF879
:10355000147005A93948FEF70EFE00208DF80E0004
:103560008DF80F0001208DF810000020ADF8040048
:10357000ADF80600ADF80800ADF80A00ADF80C0093
:1035800001208DF8110001A8FEF77FFE00200AB08F
:10359000BDE8F081F0B585B007460D460024122045
:1035A0000090019000208DF808008DF809008DF83A
:1035B0000A5000BF05E0395D0DF10B000155601C9C
:1035C00084B2AC42F7DB69461C48FEF74DFF064665
:1035D000002401E0601C84B231461848FEF7DCFF8D
:1035E00018B940F6FF708442F4DB40F6FF70844265
:1035F00002DB012005B0F0BD0020FBE730B585B04F
:10360000054600210D48FFF7A7F810B9002005B0C6
:1036100030BD6A4600210948FFF71BF8002404E08A
:103620000DF10B00005D2855641C9DF80A00A042B6
:10363000F6D89DF80A00EAE7000002400064004066
:103640001CB501211020FDF7ADFB01210846FDF757
:1036500003FC02208DF8040003208DF805000020F3
:103660008DF806008DF807004FF4D44000906946AD
:103670006B48FDF7F9F8012209216948FDF77FF948
:1036800001220B216648FDF77AF901220D216448D9
:10369000FDF775F901220E216148FDF770F91CBD97
:1036A00030B589B0044600BFFFF7CAFF5D48B0FBE4
:1036B000F4F0451E0020ADF81800ADF81A0007958B
:1036C000ADF820008DF8220006A95748FDF795FFB8
:1036D0006020ADF804000120ADF806000020ADF830
:1036E00010004FF48070ADF814003220684364215C
:1036F00090FBF1F0039001A94B48FEF713F801A9E4
:103700004948FEF748F801A94748FEF791F801A992
:103710004548FEF7F3F801214348FDF7F7FF012183
:103720004148FEF7E4FB09B030BD3E4AB2FBF0F27F
:10373000521E4A436423B2FBF3F23B4B5A63394AAD
:10374000B2FBF0F2521E4A436423B2FBF3F2364B53
:103750009A63344AB2FBF0F2521E4A436423B2FB2E
:10376000F3F2314BDA632F4AB2FBF0F2521E4A43B6
:103770006423B2FBF3F22C4B1A6470471CB5012191
:103780000820FDF70FFB0F20009001208DF80400AA
:1037900000208DF8060003208DF8050001208DF82B
:1037A000070069462148FDF75FF80C211F48FDF727
:1037B000D7F803211D48FDF7D5F8642144F62060B1
:1037C000FFF7B3FF1CBD10B50C211848FDF7C8F872
:1037D00003211648FDF7C6F810BD10B50C2113489B
:1037E000FDF7C0F803211148FDF7BAF810BD70B518
:1037F00004460D464CB1012C04D0022C06D1FFF733
:10380000E2FF04E0FFF7E9FF01E000BF00BF00BFF7
:10381000C5F1640144F62060FFF787FF70BD00002A
:1038200000100240007A030A00000140000C024030
:103830007CB5002514E06946284601F0D9FF06460C
:1038400066B9F74850F8254044B1012C06D0D4E9B8
:10385000020100EB810060640198A064681CC5B29D
:103860003F2DE8D97CBD002400BF02E0C82002F053
:10387000C9F8EC4800780028F8D0EB4800686421CB
:10388000B0FBF1F0E84908600846006828B900205C
:10389000E6490870FF2001F0EDFF00BF02F08AF951
:1038A0000446E3480068E34908600020E0490860F6
:1038B000204602F083F9DF480068DB490968B0FB65
:1038C000F1F0C0F16400D949087002F0DCF9FFF7AB
:1038D000AFFF642002F096F8E0E700B587B0032060
:1038E00000218022D44BCDE90132CDE903104FF6FF
:1038F000FE703E23D14A0090AFF2950001F091FD99
:1039000006AACFA13E2001F0F5FE07B000BD0024BD
:1039100000BF00BF02F04EF90446C5480068401CD5
:10392000C3490860204602F049F902F0ABF9F1E71B
:1039300000B587B0032000218022C54BCDE90132BC
:10394000CDE903104FF6FF703F23C24A0090AFF25B
:10395000410001F066FD06AABFA13F2001F0CAFEAA
:1039600007B000BD04E0002200F8012B4A1E91B20E
:103970000029F8D1704770B5C821BB48FFF7F2FFA6
:1039800000230FE0581C85B203EB8300B64901EB1E
:10399000800405EB850001EB800600202070666046
:1039A000581C83B2092BEDD303EB8300AE4901EB26
:1039B00080040020207060600846AC49086070BD3B
:1039C00070B54FF47C71AA48FFF7CCFF4FF48071BB
:1039D0009348FFF7C7FF002413E0601CC5B2C4EB97
:1039E000C40000EB4000A24901EB8003C5EBC50019
:1039F00000EB400001EB80065E619EA0D864601C75
:103A0000C4B20B2CE9D3C4EBC40000EB40009849CE
:103A100001EB80030020586196A0D86400209649ED
:103A2000086093489549086070BD0021944A117060
:103A3000002004E00021934A1154411CC8B2082818
:103A4000F8D30021904A1170904A1170904A116089
:103A5000904A1160704700208F4908608F490870B4
:103A60008F4908708F4908708F4908708F49086026
:103A70006F4908606F4908606B49086069490870C0
:103A8000704710B502F0FAF8FFF7E5FFFFF7CDFF3A
:103A9000FFF796FFFFF76FFF00F0EAFE01F0E1F994
:103AA000FFF746FFFFF719FF02F0E9F810BD7E4867
:103AB0000078012808D179480078FF2804D2774897
:103AC0000078401C75490870704779496C4A127833
:103AD000885C6C49095C764A515C01EBC0016B4A19
:103AE0001170704710B500246F480078012830D15C
:103AF00002F060F804466948007820B16748007811
:103B0000401E6649087065480078F8B96448007836
:103B1000E0B9FFF7DAFF42485C49097850F8210024
:103B20005B490860594800785749097888420DD0A8
:103B300057480068806B401C5549096888635B489A
:103B40000068401C5949086002F054F8204602F011
:103B500035F810BD10B5002453480078012811D164
:103B600002F028F804464D48007840B94C480078E7
:103B7000FF2804D24A480078401C49490870204672
:103B800002F01CF810BD10B5002402F013F8044632
:103B900042480078F8B942480078E0B9FFF795FF4D
:103BA0001F483A49097850F82100394908603748D8
:103BB00000783549097888420DD035480068806B17
:103BC000401C33490968886338480068401C3749FD
:103BD000086002F008F8204601F0F0FF10BD10B5B3
:103BE00000243148007801286FD101F0E3FF04463A
:103BF0002B48007880B12A480078401E2849087078
:103C00000846007848B92548007838B9204601F0C0
:103C1000D5FFFFF7B8FF58E054E04FE04AE000005E
:103C2000841A0020640000205C000020580000205E
:103C300074000020600000208416002080180020FE
:103C400075432F4F532D4949205374617400000070
:103C500084180020801A002075432F4F532D4949A6
:103C60002049646C650000006C15002050000020A5
:103C7000841B00203F000000840000207C00002006
:103C8000690000206A000020670000206800002012
:103C900080000020780000209000002065000020B7
:103CA0006600002073000020720000204C000020FD
:103CB000B2600008204601F081FF06E0204601F0D6
:103CC0007DFF02E0204601F079FF10BD10B5EB4802
:103CD000007890B9FFF7F9FEE9480078E9490870E3
:103CE000E948E749097850F82100E84908600846A2
:103CF0000068E749086001F064FF10BD10B50024BA
:103D0000022001F07FFE01F055FF04460020E1494A
:103D10000860204601F052FF642001F073FE01F0BC
:103D200049FF0446DB480068DB4908600120DB49A5
:103D30000870204601F042FF10BD70B5002602F069
:103D40007AF801F037FF0646D5480068401CD44990
:103D50000860304601F032FFC8480078012853D18E
:103D6000D048007820B1012804D0022809D103E00E
:103D700001250BE0002509E001250120C949087053
:103D800004E001250020C749087000BF00BF05B945
:103D900070BDC548046833E001F00CFF0646E06AD8
:103DA00050B3E06A401EE062E06A28BB94F830003D
:103DB00000F0370040B114F8300F00F0C800207058
:103DC00001206070303C02E0002084F8310094F85B
:103DD000300000F0080078B93434A078B34909788D
:103DE0000843B24908702078B149085C61780843FB
:103DF00014F83419AE4A50546469304601F0DEFEBE
:103E000094F832003F28C7D100BFC1E740F2231029
:103E10007047704710B590F8342001F10B039B5C9C
:103E200090F83540A34301F10B04A35423469B5C57
:103E300023B98B7A90F83640A3438B7210BD2DE9DD
:103E4000F04F05460F4690469946A87A99490E5C70
:103E500005F10B00805D11F800B00BEBC60000F01F
:103E6000FF0A894850F82A4000202034E06027608B
:103E7000207C20EA0800207484F81190207C203CEB
:103E800000F0080068B994F83600884909780843BA
:103E9000864908708648805D94F835100843844947
:103EA000885529462046FFF7B5FF5046BDE8F08FFC
:103EB00010B5774A1268D061754A126892F83430AA
:103EC00000F10B02D25C724B1B6893F835301A4339
:103ED0006F4B1B6893F8344000F10B031A55827A3C
:103EE0006B4B1B6893F836301A438272684A12682B
:103EF00092F834106E4A525C654B1B6893F835306B
:103F00009A436B4B5A541A46525C42B9604A126843
:103F100092F83630654A12789A43644B1A7010BD95
:103F2000014600228A72002005E0002301F10B0205
:103F30001354421CD0B20828F7D3704705E011F89B
:103F4000013B00F8013B531E9AB2002AF7D170479B
:103F50000146002002E0491C421CD0B20A78002A27
:103F6000F9D170472DE9F84F05460F46904699461E
:103F7000DDE90AAB0020009001F01CFE00904E48E5
:103F80000468002C75D0183454F8040C4A490860B1
:103F9000009801F013FE44F8187CA57600202076E6
:103FA0006076606144F814BC44F80CAC44F8108CA2
:103FB0000C9824F8080C24F8069C0020E077E81000
:103FC000207705F00700E076217F01208840A07768
:103FD000E17E01208840607700206060E060A060A2
:103FE0002062A0626062E0622063AFF278306063BA
:103FF000183C002606E0002104F1500040F826108D
:10400000701CC6B2002EF6D0204601F013FF2046E9
:1040100001F036FE01F0CEFD00901B4840F825402F
:104020002148006860610020A0611F48006810B14D
:104030001D48006884611C4804603434A0781B4922
:10404000097808431949087020781949085C617893
:10405000084314F83419164A505418480078401C84
:1040600016490870009801F0A9FD0020BDE8F88FFE
:10407000FFE7009801F0A2FD4220F7E77200002060
:104080006800002067000020841A002080000020C3
:1040900078000020740000205C00002064000020F4
:1040A000900000208800002084000020690000208B
:1040B0006A000020B26000087C000020730000202D
:1040C0002DE9F05F04460F4691461E464FF0000B67
:1040D0002078052804D0012030700020BDE8F09F32
:1040E00009F0800ABAF1000F04D029F080094FF0DE
:1040F000010801E04FF000080020307001F05AFD87
:104100008346B9F1000F2CD0B9F1010F3BD0B9F1C2
:10411000020F03D0B9F1030F46D111E0208900EA64
:104120000705BD4206D1B8F1010F05D12089A8438A
:10413000208101E070203070584601F03FFD3AE0E8
:10414000208900EA070535B1B8F1010F05D12089B2
:10415000A843208101E070203070584601F02EFD08
:1041600029E0208927EA0005BD4206D1B8F1010FF8
:1041700005D120892843208101E070203070584605
:1041800001F01CFD17E0208927EA000535B1B8F1E0
:10419000010F05D120892843208101E07020307073
:1041A000584601F00BFD06E0584601F007FD0025DA
:1041B0006F20307000BF00BF28468FE72DE9F04127
:1041C00006460D460027FA48007820B110202870D6
:1041D0000020BDE8F08101F0EDFC0746F5480468D9
:1041E00084B100684068F34908600520207026818A
:1041F00000206060F0A0E060384601F0DFFC0020A5
:10420000287004E0384601F0D9FC7220287020465E
:10421000DFE730B501464A6808682AB9CC686060B3
:1042200028B10025456002E0106000B142608B6853
:1042300000255D6230BDF0B506460F46B46800202B
:10424000283460602780207A00F0DF002072002090
:104250006072207A283C88B93434A078D74909782C
:104260000843D64908702078D549085C617808432E
:1042700014F83419D24A5054012500E00025304684
:10428000FFF7C7FF2846F0BD2DE9F04704468946F1
:1042900015464FF0000AC648007820B10F2028705C
:1042A0002046BDE8F0872078052803D0012028703B
:1042B0002046F6E701F07EFC8246606808B10127DF
:1042C00000E00027B9F1000F03D0B9F1010F3CD194
:1042D00019E08FB9B8A0E06000202070B5480068F0
:1042E000606000202081B3480460504601F066FC05
:1042F00000202870002605E0504601F05FFC4920B0
:104300002870264628E0D4F8048005E000214046C5
:10431000FFF791FFD8F80080B8F1000FF6D1A6A002
:10432000E06000202070A3480068606000202081C9
:10433000A0480460504601F041FC012F01D1FFF775
:1043400022FC00202870002606E0504601F036FCD2
:1043500007202870264600BF00BF3046A1E72DE9A0
:10436000F04105460E46144600279148007820B1DA
:10437000112020700020BDE8F08101F01BFC0746F1
:104380002878052806D0384601F018FC0120207056
:104390000020F0E7E86830603068FFF7D9FD80461C
:1043A000384601F00BFC002020704046E3E72DE981
:1043B000F04105460E46144600277D48007818B1A6
:1043C00012202070BDE8F08101F0F4FB0746287848
:1043D000052805D0384601F0F1FB01202070F1E7F7
:1043E000EE60384601F0EAFB0020207000BFE9E7EC
:1043F000F0B51446059E734F3F6897F8307047F04C
:104400002007DFF8C0C1DCF800C08CF8307000274E
:10441000DFF8B0C1DCF800C08CF83170694F3F683C
:10442000FE62684F3F6879620C828B74654F3F680B
:104430008F6047680F6000274F60C860456805B10E
:10444000696041605F4F3F6897F834205C4FBF5C04
:10445000DFF870C1DCF800C09CF835C027EA0C0713
:10446000DFF85CC10CF802706746BF5C5FB9554F5E
:104470003F6897F836C0514F3F7827EA0C07DFF8BE
:104480003CC18CF80070F0BD2DE9F04F89B00546B5
:104490000F4691469A46129E0020029044480078AA
:1044A00028B102203070002009B0BDE8F08F4648E6
:1044B000007818B10D2030700020F5E72878052825
:1044C00003D0012030700020EEE709F0800BBBF133
:1044D000000F04D009F07F094FF0010801E04FF010
:1044E000000801F067FB0290B9F1000F4AD0B9F162
:1044F000010F78D0B9F1020F03D0B9F1030F71D1D8
:1045000020E0288900EA0704BC420FD1B8F1010F6E
:1045100002D12889A04328812A480068048502988E
:1045200001F04CFB002030702046BDE74B463A4678
:1045300004A92846CDF800A0FFF75AFF029801F021
:104540003DFB78E0288900EA07047CB1B8F1010F4F
:1045500002D12889A04328811A480068048502985E
:1045600001F02CFB0020307020469DE74B463A4678
:1045700004A92846CDF800A0FFF73AFF029801F001
:104580001DFB58E0288927EA0004BC421ED1B8F17F
:10459000010F02D12889204328810A480068048538
:1045A000029801F00BFB0020307020467CE71AE0F7
:1045B00065000020540000203F000000690000203A
:1045C0006A00002078000020660000204B463A4632
:1045D00004A92846CDF800A0FFF70AFF029801F0D1
:1045E000EDFA28E01FE0288927EA00047CB1B8F141
:1045F000010F02D1288920432881B1480068048531
:10460000029801F0DBFA0020307020464CE74B4660
:104610003A4604A92846CDF800A0FFF7E9FE029823
:1046200001F0CCFA07E0029801F0C8FA00246F20EC
:104630003070204638E700BFFFF7A5FA01F0BAFA5C
:1046400002909F48006890F8310020B39C480068B1
:1046500090F83100039000209949096881F83100F1
:1046600004A8FFF7D6FD00209549096881F83000BD
:10467000029801F0A3FA00240398012805D002282B
:1046800002D10E20307003E000BF0A20307000BF5E
:1046900000BF204608E78A480068048DB8F1010F82
:1046A0001ED1B9F1000F0ED0B9F1010F0CD0B9F144
:1046B000020F03D0B9F1030F0AD100E000BF28892F
:1046C000A04328810BE000BF28892043288106E011
:1046D000029801F073FA6F2030700020E4E600BF0A
:1046E000029801F06BFA002030702046DCE670B5CD
:1046F000002501F05FFA054671480068048D2846E0
:1047000001F05CFA204670BD2DE9FC5F0446894645
:1047100092461E46002000902078052804D00120F3
:1047200030700020BDE8FC9F01F044FA0090BAF11F
:10473000000F03D0BAF1010F0AD104E0208920EA6A
:10474000090020810BE0208940EA0900208106E071
:10475000009801F033FA712030700020E2E700BFCA
:104760004FF0000B656855E0A87C40B3012838D0B5
:10477000022802D0032844D111E02089298A00EAC6
:104780000107288AB84209D139462846FFF753FD68
:104790008046B8F1010F01D14FF0010B38E02089BC
:1047A000298A00EA01074FB139462846FFF743FD41
:1047B0008046B8F1010F01D14FF0010B28E0288AA3
:1047C000218920EA0107288AB84209D139462846BA
:1047D000FFF731FD8046B8F1010F01D14FF0010B19
:1047E00016E0288A218920EA01074FB13946284678
:1047F000FFF721FD8046B8F1010F01D14FF0010B09
:1048000006E0009801F0DAF96F203070002089E7A7
:1048100000BF2D68002DA7D1009801F0CFF9BBF1A2
:10482000010F01D1FFF7AFF901F0C4F90090208921
:104830000190009801F0C2F900203070019871E7F2
:104840002DE9F04104460D4600272078052804D0C4
:10485000012028700020BDE8F08101F0ABF9074687
:104860002689384601F0AAF9002028703046F2E780
:104870002DE9F04150211348FFF774F800250EE0B0
:10488000681C86B20F4800EB051400EB06170020E9
:1048900020706760AFF2E020E060681C85B2042DF4
:1048A000EED3084800EB0514002020706060AFF2E2
:1048B000F820E060034804490860BDE8F08100008A
:1048C0007800002034160020540000202DE9F0412B
:1048D00006460D464FF000083078022804D001202B
:1048E00028700020BDE8F08101F064F9804674680A
:1048F000E08A78B12169081D20610F68E08A401EB6
:10490000E082A1682069884201D1606820610020AE
:10491000287002E01F2028700027404601F04EF961
:104920003846DFE72DE9F04106460F464FF0000814
:10493000F748007810B10020BDE8F08101F03AF9A5
:104940008046F4480568006820B1F2480068406875
:10495000F0490860404601F031F93DB301F02AF911
:104960008046ED480468C4B100680068EA49086000
:10497000404601F023F9666006EB8700A060E66020
:104980002661A7820020E082022028700020288172
:104990006C602846FFF7C4FA08E0DE4800686860EB
:1049A000DC480560404601F009F900252846C3E7C8
:1049B0002DE9F0470446894615464FF0000A207855
:1049C000022804D0012028702046BDE8F087D04896
:1049D000007818B10F2028702046F6E701F0EAF8B9
:1049E0008246A07A10B14FF0010801E04FF00008B4
:1049F000B9F1000F03D0B9F1010F45D11FE0B8F1B3
:104A0000000F15D16668C44800683060C24806606F
:104A100000202070BF480068606000202081BD48F1
:104A20000460504601F0CAF800202870002705E015
:104A3000504601F0C3F84920287027462BE005E0D6
:104A40000023042219462046FFF7F9F9A07A00282E
:104A5000F6D16668B04800683060AF480660002054
:104A60002070AC480068606000202081A948046084
:104A7000504601F0A3F8B8F1010F01D1FFF783F818
:104A800000202870002706E0504601F097F8072024
:104A90002870274600BF00BF384696E770B5054628
:104AA000002601F087F806466C686068E060606880
:104AB00020610020E082304601F080F8002070BDC7
:104AC0002DE9F0470746884615464FF0000938782B
:104AD000022804D0012028700020BDE8F0878C480F
:104AE000007818B1022028700020F6E78B48007883
:104AF00018B10D2028700020EFE701F05BF8814627
:104B00007C68E08A98B12169081D20610E68E08AFE
:104B1000401EE082A1682069884201D1606820615E
:104B2000484601F04BF8002028703046D5E77C4815
:104B3000006890F8300040F004007949096881F875
:104B4000300000207649096881F831007448006817
:104B5000C0F82C803846FFF7ABF9484601F02EF834
:104B6000FFF711F801F026F881466D48006890F8CB
:104B7000310020B101280DD002280AD105E0684893
:104B80000068066A002028700DE000260E202870BC
:104B900009E000BF394662480068FFF73BF900268C
:104BA0000A20287000BF00BF00205D49096881F815
:104BB00030005B49096881F8310059490968C861CA
:104BC000574909680862484600F0F8FF304684E714
:104BD0002DE9F04104460F4615464FF000082078B5
:104BE000022804D0012028700020BDE8F08100F0E8
:104BF000E1FF8046A07A20B300267FB1012F0CD1BF
:104C000007E00223042200212046FFF718F9701C58
:104C1000C6B2A07A0028F4D109E000BF0223042222
:104C200000212046FFF70BF9701CC6B200BF00BF81
:104C3000404600F0C3FFFEF7A6FF0E202870304666
:104C4000D3E7404600F0BAFF0020287000BFCCE751
:104C50002DE9F04105460E4600272878022802D0AB
:104C60000120BDE8F08100F0A5FF0746A87A60B1F9
:104C70000023042231462846FFF7E1F8384600F0C9
:104C80009DFFFEF780FF0020EBE76C68E08AA18AB9
:104C9000884204DB384600F091FF1E20E1E7E1681E
:104CA000081DE0600E60E08A401CE082D4E902103A
:104CB000884201D16068E060384600F07FFF002044
:104CC000CFE72DE9F04105460E4600272878022857
:104CD00002D00120BDE8F08100F06CFF0746A87A01
:104CE00060B10023042231462846FFF7A8F8384671
:104CF00000F064FFFEF747FF0020EBE76C68E08AF6
:104D0000A18A88420EDB384600F058FF1E20E1E7FA
:104D100065000020500000208C000020660000206C
:104D20007800002061682069884201D1A068206174
:104D30002069001F206120690660E08A401CE08233
:104D4000384600F03BFF0020C4E72DE9F04105465E
:104D50000F4616464FF000082878022802D001209E
:104D6000BDE8F08100F026FF8046A87AE8B106F0A1
:104D7000010050B105E00023042239462846FFF720
:104D80005EF8A87A0028F6D105E00023042239460F
:104D90002846FFF754F8404600F010FF06F00400E4
:104DA00008B9FEF7F0FE0020DAE76C68E08AA18A15
:104DB000884204DB404600F001FF1E20D0E706F0E9
:104DC000020058B161682069884201D1A068206161
:104DD0002069001F20612069076009E0E168081D63
:104DE000E0600F60D4E90210884201D16068E060A1
:104DF000E08A401CE082404600F0E0FE0020AFE781
:104E00002DE9F04705460C464FF0000A28780228A5
:104E100002D00120BDE8F08700F0CCFE8246A87ADF
:104E2000207405F10B0804F10809002705E018F8C3
:104E3000010B09F8010B781CC7B2082FF7D36E6875
:104E4000F08A18B130690068206001E0002020601D
:104E5000F08AA080B08AE080504600F0AFFE0020CB
:104E6000D8E72DE9F04178211048FEF77BFD0024BA
:104E70000DE0601C86B204EB44000C4901EBC00558
:104E800006EB460001EBC0072F60601C84B2042CC7
:104E9000EFD304EB4400054901EBC0050020286076
:104EA000084603490860BDE8F0810000741F002037
:104EB0008C00002070B5044600262078032801D01D
:104EC000002070BD00F076FE0646258915B12089C8
:104ED000401E2081304600F071FE2846F1E770B593
:104EE00005460026D248007808B1002070BD00F0C9
:104EF00061FE0646CF480468006820B1CD480068CE
:104F00004068CC490860304600F058FE3CB10320B0
:104F100020702581002060602046FFF701F82046C0
:104F2000E4E72DE9F0470446884615464FF00009AE
:104F30002078032804D0012028702046BDE8F0879F
:104F4000BB48007818B10F2028702046F6E700F023
:104F500031FE8146A07A08B1012700E00027B8F1B0
:104F6000000F03D0B8F1010F35D117E07FB9002051
:104F70002070B0480068606000202081AD48046067
:104F8000484600F01BFE00202870002605E0484639
:104F900000F014FE49202870264623E005E0002397
:104FA000012219462046FEF74AFFA07A0028F6D1D2
:104FB0002070A04800686060002020819D48046047
:104FC000484600F0FBFD012F01D1FEF7DCFD00207B
:104FD0002870002606E0484600F0F0FD0720287003
:104FE000264600BF00BF3046A8E72DE9F041054640
:104FF0000E46144600272878032803D0012020708D
:10500000BDE8F0818A48007810B102202070F7E7EF
:105010008948007810B10D202070F1E700F0CAFD3A
:105020000746288940B12889401E2881384600F06B
:10503000C5FD00202070E3E78048006890F830004C
:1050400040F001007D49096881F8300000207B496B
:10505000096881F8310079480068C6622846FEF781
:1050600027FF384600F0AAFDFEF78DFD00F0A2FDF7
:1050700007467248006890F8310020B1012809D035
:10508000022806D102E0002020700BE00E202070E4
:1050900008E000BF294669480068FEF7BBFE0A2009
:1050A000207000BF00BF00206449096881F830000B
:1050B0006249096881F8310060490968C861384669
:1050C00000F07CFD00BF9BE72DE9F04104460F4650
:1050D00015464FF000082078032804D001202870DE
:1050E0000020BDE8F08100F065FD8046A07A20B385
:1050F00000267FB1012F0CD107E0022301220021FD
:105100002046FEF79CFE701CC6B2A07A0028F4D19F
:1051100009E000BF0223012200212046FEF78FFE96
:10512000701CC6B200BF00BF404600F047FDFEF74E
:105130002AFD0E2028703046D3E7404600F03EFDA1
:105140000020287000BFCCE770B504460025207809
:10515000032801D0012070BD00F02CFD0546A07A87
:1051600060B10023012219462046FEF768FE28465A
:1051700000F024FDFEF707FD0020ECE720894FF644
:10518000FF71884207D22089401C2081284600F008
:1051900015FD0020DFE7284600F010FD3320DAE798
:1051A0002DE9F04704460D464FF00009207803280A
:1051B00002D00120BDE8F08700F0FCFC8146A07A17
:1051C000A87204F10B0705F10208002605E017F8A4
:1051D000010B08F8010B701CC6B2082EF7D320890A
:1051E0002880484600F0EAFC0020E3E72DE9F04182
:1051F00004460E46154600272078032803D00120D8
:105200002870BDE8F08100F0D5FC0746002028702A
:10521000208908B1268105E0A07A08B9268101E03D
:1052200049202870384600F0C9FC00BFE9E70000BB
:10523000650000205000002066000020780000205B
:105240002DE9FF5F814688460020009000F0B2FC07
:105250000090F94850F8280030B1009800F0AEFCFA
:10526000282004B0BDE8F09FB9F1FF0F03D1F34847
:10527000006890F83290F04850F8294024B900981E
:1052800000F09CFC2920ECE7012C04D1009800F0F0
:1052900095FC4320E5E74FEAE80708F00700039094
:1052A0000120B84000F0FF0A01210398814001F07D
:1052B000FF0B0020E04941F82900084640F828404B
:1052C00014F8346FA07802906078343C0190DC4888
:1052D000815D01980140D1B1D948805D0199884331
:1052E000D74988550846805D28B9D6480078029984
:1052F0008843D4490870D348007840EA0A00D1496D
:105300000870CF48C05D40EA0B00CD49C855E5693B
:10531000D5B105F10B00805D0199884305F10B01C2
:1053200088550846805D18B9A87A02998843A87202
:10533000A87A40EA0A00A87205F10B00C05D40EAB5
:105340000B0005F10B01C85584F8328084F83470E5
:10535000039884F8330084F836A084F835B00098B8
:1053600000F02CFCB8480078012801D1FEF70BFCB6
:10537000002076E72DE9FE4F06460F4690461C4674
:105380004FF0000900F016FC8146B048007828B1C3
:10539000484600F013FC3C20BDE8FE8FA64850F8BC
:1053A000240060BB0120A44941F82400484600F0D5
:1053B00005FC002342463946304600F065FC824633
:1053C000002000900190034602465146029020467C
:1053D000FEF7C8FD054635B99B48007801280CD179
:1053E000FEF7D1FB09E000F0E5FB81460020924981
:1053F00041F82400484600F0E1FB2846CCE7484647
:1054000000F0DCFB2820C7E702F0010343B102F003
:1054100002032BB102E0491E002308C00029FAD183
:1054200070472DE9F04F85B081468A4693461C4669
:10543000DDE90F78129D0020039000F0BBFB039084
:105440008248007830B1039800F0B8FB3C2005B0EA
:10545000BDE8F08F784850F8240088BB01207649D9
:1054600041F82400039800F0A9FB2A46414638463B
:10547000FFF7CAFF2B465A465146484600F004FC47
:1054800004901198CDE9008002953A4620460E9B83
:105490000499FEF767FD064636B96B480078012887
:1054A0000CD1FEF770FB09E000F084FB03900020B4
:1054B000614941F82400039800F080FB3046C6E7BC
:1054C000FFE7039800F07AFB2820C0E72DE9F041C0
:1054D000054600275D48007810B14020BDE8F08106
:1054E0003F2D01D13E20F9E700F064FB0746FF2D78
:1054F00003D15248006890F832504F4850F8254088
:1055000024B9384600F05AFB4320E7E7012C04D1C8
:10551000384600F053FB3D20E0E714F8340F4849CB
:10552000085C617888432178454A505414F834095E
:105530001146085C30B994F8361042480078884328
:1055400040490870E06918B12046E169FEF762FC45
:10555000666A16B13046FEF75CFE0020E06284F811
:10556000300084F831003A480078FF2804D23848E7
:105570000078401C36490870384600F01FFBFEF7E3
:1055800048FC00F017FB07463148007820B130484E
:105590000078401E2E490870204600F072FB2D480E
:1055A0000078401E2B4908700020234941F825004F
:1055B000A06930B900206169886127496069086085
:1055C00005E0D4E905014861D4E905108861234864
:1055D000006860612148046021A0E064384600F062
:1055E000EDFA19480078012801D1FEF7CCFA002025
:1055F00074E72DE9F041044600273F2C02D13E20FC
:10560000BDE8F081FF2C0BD100F0D4FA07460B481F
:10561000006890F83760384600F0D0FA3046EFE77F
:1056200000F0C8FA0746044850F82450D5B9384667
:1056300000F0C4FA4320E3E7841A00207800002039
:105640006A00002069000020720000206500002030
:105650006600002073000020840000207C000020F1
:105660003F000000012D04D1384600F0A7FA3D208C
:10567000C6E73F2085F83700384600F09FFA002043
:10568000BEE72DE9F04706460F4614464FF00008E6
:10569000D648007820B1112020700020BDE8F087A6
:1056A00000F088FA8046FF2E03D1D148006890F8B8
:1056B0003260D04850F8265035B9404600F07EFAA6
:1056C000432020700020E9E7012D06D1404600F07C
:1056D00075FA432020700020E0E7E86C38603868F5
:1056E000FEF736FC8146404600F068FA0020207044
:1056F0004846D3E72DE9F04106460F4614464FF0E1
:105700000008BA48007818B112202070BDE8F08176
:1057100000F050FA8046FF2E03D1B548006890F89B
:105720003260B44850F826502DB9404600F046FA91
:1057300043202070EAE7012D05D1404600F03EFAF3
:1057400043202070E2E7EF64404600F037FA002083
:10575000207000BFDAE770B50546002600F02AFA8F
:105760000646A44850F8254024B9304600F026FAF1
:10577000462070BD012C04D1304600F01FFA4320B2
:10578000F7E794F8300000F0080060B314F8300F29
:1057900000F0F700207014F83009F8B9E06AC8B9D1
:1057A0003434A078944909780843934908702078E4
:1057B0009249085C6178084314F834198F4A5054B0
:1057C000304600F0FBF98E480078012809D1FEF739
:1057D000DAF906E0304600F0F1F902E0304600F078
:1057E000EDF90020C5E7304600F0E8F94420C0E7B5
:1057F0002DE9F04707460D464FF0000A00202860CB
:10580000686000F0D7F98246FF2F03D1784800681E
:1058100090F83270774850F827402CB9504600F085
:10582000CDF94320BDE8F087012C04D1504600F0AB
:10583000C5F94320F6E7207C00F0010020B950466E
:1058400000F0BCF94520EDE70026D4F80C90D4F820
:105850000880504600F0B2F900E0761C58F8041BAE
:105860000029FAD0B0002860A9EB0600800068602B
:105870000020D7E72DE9F04105464FF0000800F081
:1058800099F98046FF2D05D15948006890F83250AB
:10589000012608E05648006890F83200A84201D17D
:1058A000012600E00026534850F825402CB9404618
:1058B00000F084F94820BDE8F081012C04D1404675
:1058C00000F07CF94320F6E794F834704B48C05D53
:1058D00094F8351088434949C8550846C05D30B929
:1058E00094F836104448007888434349087094F887
:1058F000300040F0080084F83000404600F05EF9C7
:10590000012E01D1FEF73FF90020D4E72DE9F04147
:1059100005460E46002700F04DF90746FF2D03D13E
:105920003348006890F83250324850F825402CB97E
:10593000384600F043F92920BDE8F081012C04D15C
:10594000384600F03BF94320F6E754222146304622
:10595000FEF7F4FA384600F031F90020ECE72DE9C3
:10596000F04704460E4617464FF0000900F022F9B2
:105970008146FF2C02D11E48056802E01D4850F800
:10598000245005F1500050F82680484600F016F9E2
:10599000002038704046BDE8F0872DE9F047044606
:1059A0000E46174698464FF0000900F003F981466D
:1059B000FF2C02D10E48056802E00E4850F8245032
:1059C00005F1500040F82670484600F0F7F8002036
:1059D00088F80000BDE8F08710B50548006800F0C1
:1059E0002BFAFF20FFF772FD10BD000065000020BC
:1059F00078000020841A0020690000206A0000203E
:105A00007200002070B5054600266348007800B19A
:105A100070BD6248007800B1FAE71DB300F0CAF823
:105A200006465F48006890F834405E48005D5C4977
:105A3000096891F8351088435A4908550846005DB1
:105A400040B95748006890F83610574800788843A6
:105A50005549087052480068C562304600F0AEF8FB
:105A6000FEF791F800BFD3E72DE9F04105460E4659
:105A700017461C464848007810B15520BDE8F08113
:105A80004648007808B13220F8E74FF47A70604356
:105A90004FF47A71B0FBF1F14FF461606843C6EBEB
:105AA000061200EB8200384400EB4002C2EBC0104B
:105AB00001EBC0084046FFF7A5FF0020DEE770B508
:105AC000054600263F2D01D32A2070BD00F072F854
:105AD0000646364850F8254024B9304600F06EF8A6
